:020000041000EA
:10000000002008205D0100101B0100101D010010E0
:100010001101001011010010110100101101001058
:100020001901001019010010190100101F01001022
:10003000110100101901001021010010230100100E
:100040001101001011010010110100101101001028
:100050001101001011010010110100101101001018
:100060001101001011010010110100101101001008
:1000700011010010110100101101001011010010F8
:1000800011010010110100101101001011010010E8
:1000900011010010110100101101001011010010D8
:1000A00011010010110100101101001011010010C8
:1000B00011010010110100101101001011010010B8
:1000C00011010010110100101101001011010010A8
:1000D0001101001011010010110100101101001098
:1000E0001101001011010010110100101101001088
:1000F0001101001011010010110100101101001078
:100100001101001011010010110100101101001067
:10011000EFF30580103800BE00BE00BE00BE00BE7A
:1001200000BE00BEF2EB8871F43F001014400010D6
:10013000A001001090A31AE7D3DEFFFF42012110B7
:10014000FF010000904F0000793512AB4FF0000026
:100150001E49086006C881F3088810474FF05040D8
:10016000006810B14FF00000F2E70DA40ECC00299A
:1001700002D000F012F8F9E71549164A002000E015
:1001800001C19142FCD11449884714498847144958
:10019000884700BEFDE701C901C29A42FBD3704700
:1001A0001440001010010020C4110020C85000109D
:1001B0000000082000000820C8500010001008208F
:1001C00000100820000000007047000008ED00E06B
:1001D000C4110020F4190020012000103502001085
:1001E000F91F0010F8B500BF064B0749C91A89105E
:1001F00048BF0131491003D0044B0BB101481847E7
:10020000704700BFC4110020C4110020000000008E
:1002100008B5054B1BB105490548AFF30080BDE8A3
:100220000840FFF7E1BF00BF00000000AC1900204C
:10023000C03D00102DE9F0472DED028B4F4986B0EF
:100240004F4802F0F9F80321042000F0B5F903212A
:10025000052000F0B1F900220121042000F0CAF9C4
:1002600000220121052000F0C5F900F091F80F20CF
:1002700000F0D4F90F234FF0010242EC44300E207D
:1002800000F0CCF90E204FF0000343EC44000022B4
:10029000012100F0AFF900214FF00008084603F0FB
:1002A000B1FA9FED388A0124DFED378AC246002675
:1002B000364F00214FF0FF3002F048FB4FF0504323
:1002C0005B68C3F380395B0405D424B188F001086E
:1002D0000F2348EC4030B8F1000F2FD018EE100A71
:1002E00003F02EFD04460D4601F0FFFB32463B466F
:1002F00001F068FA01F08CFA0346294620461D46B3
:1003000001F0EEFB32463B4601F05CFA01F080FA68
:1003100038EE288A0446002003F082F848B1002213
:1003200064B201211046CDE901AA00946BB203F03A
:1003300093F80A2000F004FF4C46BAE70DF11602CC
:1003400005A90DF1120000F063F810B944464546C6
:10035000E1E7BDF9120000F085F80546BDF914008B
:1003600000F080F8BDF912300446002BBDF91430BE
:10037000B8BF6D42002BCEDA4442CCE7801A0600AB
:100380009411002000000000CDCC4C3D000008403E
:1003900030B5642085B000F0D3FE0125752200241D
:1003A0002B4600958DF80B2068210DF10B021748A4
:1003B0008DF80A4002F066F82B460DF10A0268211A
:1003C0000094124802F066F86B220223ADF80C206C
:1003D000682103AA00940D4802F054F81C2241F64B
:1003E0001B05ADF80C20022303AA682100940748DE
:1003F00002F048F80223682103AA00940348ADF8EC
:100400000C5002F03FF805B030BD00BF9411002041
:10041000F0B53B23012789B006460D4614468DF8FA
:100420000F300DF10F023B46682100970C4802F097
:1004300029F8002304AA009368210E23084802F03B
:1004400029F83846BDF81030BDF812205BBA338069
:10045000BDF8143052BA5BBA2A80238009B0F0BDCF
:10046000941100200028B8BF404200B2B0F57A7F56
:100470000BDBB0F57A6F06DB42F20F739842CCBF0C
:10048000052003207047012070470020704700BFFF
:1004900000487047583F001000487047083F001060
:1004A00000487047E43E00102DE9F04389B0002871
:1004B00056D0032820D06BD8394B3A4E53F8204001
:1004C000204603F005FC2028054628BF202550B112
:1004D0003146621E1346023312F8010F1B1B9D4268
:1004E00021F8020FF6D805F101084FEA480848F450
:1004F00040781FFA88F83AE02B4B002B3DD01021B2
:10050000684603F0EFFA1028814628BF4FF0100923
:100510004FEA890808F1020848F440786F461FFA4C
:1005200088F8002836D01F4E204C35460DF1100CAF
:10053000B94494E80F008CE80F0017F8013B08A9B4
:1005400003F00F026A44127C01EB131E1EF8103CEC
:10055000AA80B94505F1040525F8023CE9D106E079
:100560004FF441780E4B0F4E1B681B8873800D486B
:10057000A6F8008009B0BDE8F08307A3D3E9002303
:1005800040F222384FF008096F46CDE90023CAE750
:100590000020EFE7034EEAE70123456789ABCDEF83
:1005A00020110020A0130020E53A0010C03D0010EB
:1005B00000207047704700BF10B44FF480740C4B9C
:1005C00053F8202003EB8003C00082F0400200F1CA
:1005D000804003F5805C02F0C00200F5203003F596
:1005E0004053CCF8002041601C605DF8044B70471C
:1005F0000480034010B4084CC90041EA820154F859
:10060000202004EB8003514003F5805301F00C01DE
:100610005DF8044B196070470480034030B44FF01C
:10062000000343EC440043EC400005254FF4807484
:100630000B4BC20053F8201003EB800081F0400107
:1006400002F1804303F5203301F0C00200F5805130
:1006500000F540500A605D60046030BC704700BF28
:10066000048003400FB400B583B0049C074801F038
:10067000EDFD3CB105A92046019101F0A3FC044821
:1006800001F0E4FD012001F0B5FC00BFEC3D0010DD
:10069000FC3D001070B58646EFF3108572B6124C23
:1006A000D4E8CF6F0120002EFAD1C4E8460F002E07
:1006B000F6D1BFF35F8F4FF0010CC80801F00703BC
:1006C0000CFA03F31EF800C01CEA030608D14CEA3A
:1006D000030C0EF800C0C4E88F6F85F3108870BD5E
:1006E0001046FFF7BFFF00BF2B140020F8B5EFF353
:1006F000108772B61C4ED6E8CF5F0124002DFAD1C8
:10070000C6E8454F002DF6D1BFF35F8F9A421BD844
:10071000012502E00132934222D3D40810F804E00C
:1007200002F0070C05FA0CFC1EEA0C0FF2D14EEA9F
:100730000C0E00F804E010460023C6E88F3F87F354
:100740001088984207DBF8BD0023C6E88F3F87F387
:1007500010884FF0FF300029F5D00698FFF782FF90
:100760004FF0FF30E8E700BF2B140020044A107858
:10077000431CDBB2182B28BF10231370704700BF37
:100780003011002010B5054C82B001461F231822FD
:1007900000940348FFF7AAFF02B010BD003E00100E
:1007A000681500204FF0E022936843F000539360F7
:1007B000704700BF0021044B03F12002C3E88F1FE4
:1007C00001339342FAD17047201400204FF0E02308
:1007D0004FF08032C3F80024C3F80424C3F808247F
:1007E000C3F80C24C3F81024C3F81424C3F8182445
:1007F000C3F81C24C3F82024C3F82424C3F82824F5
:10080000C3F82C24C3F8302462B67047012300F0EB
:100810001F029340400941B1800000F1604000F5A3
:100820006140C0F8803103607047024A203042F8CE
:100830002030704700E100E0F8B50D46EFF3108777
:1008400072B6124ED6E8CF2F0123002AFAD1C6E89D
:10085000423F002AF6D1BFF35F8F0D4B00F1100429
:100860009B680C4A53F82430934203D0994201D03C
:1008700000F072FE064B9B6843F82450BFF35F8F75
:100880000023C6E88F3F87F31088F8BD29140020A5
:1008900000ED00E0110100102DE9F04F81468B467C
:1008A000164683B0EFF3108372B6DFF8D0A1009341
:1008B000DAE8CF1F01230029FAD1CAE8413F002915
:1008C000F6D1BFF35F8F664B93F90040002CC0F266
:1008D000A080644D04EB440705EB870898F80610E8
:1008E00009F110091970604BBF009B6853F829008B
:1008F0006300411B2F292FD95C49884240F0A48016
:100900001C445B4B02372F44043BDB1BC3F34A03FD
:100910006FEAC3434FF421416FEAD34325F8241013
:1009200005EB840463804BF60153A380FF2348F05A
:100930000100E671C4F808B0A3714B4B9B6843F803
:100940002900BFF35F8F0023CAE88F3F009B83F32A
:10095000108803B0BDE8F08F20F0010E9EF807105C
:10096000B1422ED84FF42143EB53414BB91C2944DB
:10097000043B04375B1A2F44AEF10401C91BC1F3D9
:100980004A043C49C3F34A030B432143A8F804102B
:100990003949A8F802304AF6AA2073465B1B5B412E
:1009A0005843000D88F8076088F80600C8F808B0BA
:1009B00048F00100CEF80010BFE7D179B1422ED93E
:1009C00096469EF906C00CEB4C02BCF1000F05EBFD
:1009D0008202F2DA4BF601510EF10402A8F104078B
:1009E000BF1AC7F34A076FEAC7476FEAD7478EF8BF
:1009F000064003EB0408204C05EB8803AEF80470B6
:100A000045F82840998083F806C0DE71C3F808B025
:100A100093E700F0A1FD124B93F9004059E77246AD
:100A200032F8041F490514D44915023102EB410183
:100A300001916FF00701C91B019F491B3944C1F3A4
:100A40004A0141F46041C9E7019300F085FD019B33
:100A500056E701F5FF1101F5FF511F31E4E700BF33
:100A6000F31900203411002000ED00E01101001006
:100A70006411002000E0FFFF014880472914002096
:100A8000F0B5EFF30585EDB2EFF3108C72B62649A1
:100A9000D1E8CF2F0123002AFAD1C1E8423F002A32
:100AA000F6D1BFF35F8F214E40F0010EB4684AF6D5
:100AB000AA2354F825701E4A0446A41A64416343CD
:100AC0001B0D77455BB21BD092F906409C421CD0AF
:100AD00092F912409C4223D092F91E409C4221D0B0
:100AE00092F92A409C4208BF03240FD0114A0024E7
:100AF000157813708571C1E88F4F8CF31088F0BDA5
:100B0000B2680D4C42F82540F0E7002404EB4404A1
:100B100002EB8402FF2494714BF601549480E5E7C4
:100B20000124F3E70224F1E72914002000ED00E09E
:100B300034110020F319002011010010014B0B4467
:100B4000036070472014002070B5104C104DAC426B
:100B50000ED2FF26236863B1FFF708FE0146204648
:100B6000FFF7ECFFA680BFF35F8F0834AC42F1D3F0
:100B700070BDFFF7FBFD01462046FFF7DFFF267142
:100B8000BFF35F8F0834AC42E4D370BDBC110020CA
:100B9000C411002010B50446FFF7E8FD01462046C9
:100BA000FFF7CCFFFF232371BFF35F8F10BD00BFA2
:100BB00010B504460120FFF7E5FD034B0344236015
:100BC000BFF35F8F10BD00BF201400200D4B1A68CB
:100BD000EFF3108172B6D2E8CFCF0120BCF1000F45
:100BE000F9D1C2E84C0FBCF1000FF4D1BFF35F8F15
:100BF00000221B68C3E88F2F81F3108840BF0020BC
:100C000000217047EC1900202DE9F04F2DED028BEB
:100C100085B0EFF30583DBB2103B9A0818BF0122C1
:100C20004FF0010103F0030B18BFAF4DAF4B08BFEE
:100C3000AF4D0BEB820253F8226001FA0BF205F57F
:100C400041539FEDA78B01925A602FE0B3881C049B
:100C500040F19380B379002B40F0DD80B6F9082095
:100C6000002AC0F21E81736902EB420203EBC20349
:100C7000D3E90247B7F1FF3F08BFB4F1FF3F0ED001
:100C800005EB8B01AB6A0A69D21AE31A934205D3CA
:100C900001232A6A03FA0BF3134200D10C612846A0
:100CA00000F038FBA042B941C0F2FB80B6F9083031
:100CB000019A002B0093EA63C8DBD6F8148003EB9B
:100CC0004309284608EBC907D7E9024A00F022FB8E
:100CD000A04271EB0A01B9DBBAF1000FC0F2C38088
:100CE000D7E90431834A934200F0ED807A88B6F95F
:100CF000080092B242EA0040984702460B4652EA88
:100D0000030100F0B080002B80F2D180B4EB020E22
:100D10006AEB030A38F93930C7E902EA002B95DBA0
:100D2000716903EB430201EBC202D2E90270BE45D6
:100D30007AEB000C4FEA430288DBB4462CF8083FFC
:100D400006E003EB430001EBC0005A00D0E902705B
:100D5000BE451A447AEB000001EBC20404DB31F912
:100D60003230A446002BECDA28F83930009BACF87E
:100D70000030B3881C043FF56DAF3369EFF3108288
:100D800072B6D3E8CF0F01210028FAD1C3E8401F83
:100D90000028F6D1BFF35F8F4FF6FF74B0880023B1
:100DA000316900B2B480C1E88F3F82F31088984265
:100DB000FFF650AF0746A946746906F1080807EB2D
:100DC000470E04EBCE03D3E90250B6F90830C4460F
:100DD000002B13DBB246009704E034F9363094461A
:100DE000002B09DB03EB430604EBC602D2E90271D8
:100DF000BD4270EB0101F0DA5646009FACF800707E
:100E000034F93E7024F83E30002FD8DAB3794D46DD
:100E1000002B3FF423AF0023B371B6F9083006F17D
:100E20000808581C3DD01A46776903E08046591CD3
:100E30003FF416AF03EB430107EBC100B0F802C06B
:100E40001C461CF4004F9E4637F93130EED09442D8
:100E500080ED028B05D0A8F80030328927F83120C8
:100E600034817246E3E738F8393033813369EFF380
:100E7000108272B6D3E8CF0F01210028FAD1C3E85F
:100E8000401F0028F6D1BFF35F8F7388316928F8BF
:100E90003930009B73800023C1E88F3F82F31088B4
:100EA000D4E640BF05B0BDEC028BBDE8F08F28460C
:100EB000CDE9022300F02EFA029A039B10EB020EFA
:100EC00043EB010A26E708460B6902919847002880
:100ED000C9D00299D1E9002311E700BFAFF3008028
:100EE000FFFFFFFFFFFFFFFF00800B40C419002042
:100EF00000000B40090C00102DE9F84F364C256915
:100F00002DB1BDE8F84F0A213448FFF717BEDFF8CE
:100F1000E4800321404600F0EBF90326C4F80C807E
:100F2000FFF724FC4FF0504C2D4B267003442361F7
:100F3000DCF800300F216370636961801D834FF01E
:100F40000405A3F878504FF00505A3F890504FF032
:100F50000605A3F8A8504FF007050E214FF6FF72C3
:100F600008274FF00A0EA3F8C0504FF001094FF0C8
:100F70000C0C4FF0020B4FF0090A0D204FF00B053F
:100F8000A3F868111749A280A3F808E1A160A3F8AB
:100F900048B0A3F8F0A0A3F82051A3F838C1A3F8F3
:100FA0005001A3F83090A3F86060A3F8D8701A80BD
:100FB0000D4B3046C8F820700C49DC60FFF73CFC54
:100FC00049463046FFF722FC094B0A211F640348BB
:100FD000BDE8F84FFFF7B2BD7C110020EC190020EE
:100FE00020140020FFFF1000C4190020090C00107D
:100FF00000200B4000000B400146F0B50069EFF304
:10100000108772B6D0E8CF5F0124002DFAD1C0E876
:10101000454F002DF6D1BFF35F8FB1F902E04C6967
:101020000EEB4E0CBEF1000F4FEACC05086904EB45
:10103000CC0C3CDB665B4E800026C0E88F6F87F3EC
:101040001088BCF80200CCE902230130C0F30E0086
:10105000012838BF0120059BACF80200CCF8103005
:10106000069B40EA0E40CCF814300B69EFF3108277
:1010700072B6D3E8CFCF0127BCF1000FF9D1C3E896
:101080004C7FBCF1000FF4D1BFF35F8F8B886353AB
:10109000A1F804E00B69C3E88F6F82F31088012286
:1010A000CB68097803F501538A405A60F0BD0023EC
:1010B000C0E88F3F87F310884FF0FF30F0BD00BFCE
:1010C00003464089B0EB214F37DD58690A1402EB23
:1010D000420210B500EBC2001C69EFF3108C72B62F
:1010E000D4E8CFEF0122BEF1000FF9D1C4E84E2FB2
:1010F000BEF1000FF4D1BFF35F8F428889B292B284
:101100008A4207D000221B69C3E88F2F8CF3108816
:10111000002010BD42F400424280012100221869E3
:101120009971C0E88F2F8CF310881C78DA68084614
:1011300002F50153A140596010BD0020704700BF67
:101140002DE9F04182B0064600F0ECF84FF47A73D6
:1011500004464FF0FF306FF00042E6FB0341A0422F
:1011600072EB01033ABF044615460D46A61F45F132
:10117000FF37B44275EB07033CBF0026374600F04B
:10118000D1F8301A67EB0101012871F1000106DA8C
:101190002046294602B0BDE8F04100F0CDB800F08D
:1011A000C1F8864267EB010100290ADB0021174BD9
:1011B0003246009316483B460191FFF71DFF013070
:1011C000E6D04FF0000C134A1349536A9F4204D8EB
:1011D000906AB042DCD29F42DAD10B68EFF3108004
:1011E00072B6D3E8CF8F5FF0010EB8F1000FF8D1DF
:1011F000C3E848EFB8F1000FF3D1BFF35F8F0B687E
:10120000C3E88FCF80F3108820BFDEE7CD0B00103E
:101210007C11002000000B40EC1900202DE9F04368
:1012200006460D4683B0EFF30584E4B23CB12D4B86
:101230005A6AAA421CD2002003B0BDE8F0832A4FAC
:10124000D7F80C9097F80080484600F063F808F152
:10125000040859F828301B1A301A65EB010198422E
:1012600071F1000110DB20BF1E4B5A6AAA42E2D383
:1012700014BF012400249B6AB34234BF204644F0CB
:10128000010003B0BDE8F08300F04CF8864265EB46
:101290000101002914DB154B3846CDE900343246F4
:1012A0002B46FFF7A9FE011E0ADD0E4B5A6AAA4221
:1012B00016D39B6AB34211D30B48FFF701FFB6E781
:1012C000084B5C6AAC42B6D3641B18BF01249B6A0E
:1012D000B34234BF204644F00100ADE7AA42EBD14F
:1012E00020BFE9E700000B407C110020CD0B00106F
:1012F00010B4054B054C064AA04214BF1846581CB2
:101300005DF8044BFFF7C6B96C15002000800B4058
:101310001C3E00100346416A0A46986A596A8A428E
:10132000FAD17047034B596A0A46986A596A914242
:10133000FAD1704700000B40074A536A9942FCD823
:10134000994207D1044B02E05A6A914202D19A6A4B
:101350009042F9D8704700BF00000B4000EB400CF2
:101360004FEA8C0C0CF1804C0CF5803CF0B5164625
:10137000DCF80420051FB2F5803F38BF4FF48032FF
:10138000EDB238BFCCF80420012D2AD94FF4006704
:10139000254C0CF54052176054F82020B2B9DCF807
:1013A0000020012D82EA461202F0E0020CF5805680
:1013B00032602AD94FF4006144F820304FF4803372
:1013C0000CF500521160CCF80430F0BD6769B7FB32
:1013D000F2FE0EF1010E0EEB4E0EBEF1030EFCD22C
:1013E000DDE70129D2D103240CF540521460DCF86A
:1013F0000820D207FBD5DCF800200B4C82EA46120D
:1014000002F0E0020CF5805632600122DCF8005058
:101410004D4005F00305356002FA01F1DCF80820C3
:101420000A42FBD0C6E700BF70150020014B53F8FD
:10143000200070477015002070B4039D04682D03D0
:1014400045EA03451B4B002CB3FBF1F3B2FBF3F66B
:101450001FDB194A194B904214BF4FF480424FF4DE
:101460000042174C1A6003F580531A60A36832EAF1
:101470000303FBD1212200F5405304330160866051
:101480001A600268002AFCDA0822C5601A6070BC83
:101490007047036803F03F038B42DAD18368C3F3DC
:1014A0000B03B342D5D1C36803F4EE23AB42D0D1D2
:1014B000EDE700BF001BB7000080054000200240A0
:1014C00000000240012300EB4000800000F180405A
:1014D00000F5841041600360704700BF0023DB8A81
:1014E000002242E800F2520201D4102118470421E0
:1014F000184700BF034AD2F82838002BFBD0BFF3AF
:101500005F8F704700000E400021044B044ABFF378
:101510005F8F43F8041B9342F9D170470C080E40CB
:101520002C080E4010B44FF48D704FF42A64064A14
:10153000064B07491460D06019605368002BFCDA31
:101540005DF8044B704700BF0080044000A00440D9
:1015500000B0FA00704700BF08B50148FFF782F8F5
:10156000403E001038B5054C054DAC4204D254F84D
:10157000043B9847AC42FAD338BD00BF783D001019
:10158000B83D001010B40748074C084B084A0949F9
:1015900004601A608B6832EA0303FBD15DF8044BE8
:1015A000704700BF002002407F3BEFEF0030024059
:1015B000F6FFF30300000240044BDB6CB3F5004F71
:1015C00003D14FF48022024BDA64704700001150BF
:1015D000002011504FF0E022044BD2F8881D0B433D
:1015E000C2F8883D10EE3004704700BF030330009E
:1015F0006FF06041044B054A19609368DB4333F098
:101600006043FAD1704700BF003002400000024042
:1016100010B545F25320FFF761FFBDE810400346C7
:101620000420184710B545F25320FFF757FFBDE8D7
:101630001040034601201847FFF7BCB81449154B6A
:1016400070B55C1AA610442E324628BF4422124DB3
:101650009200284602F0C6FAB4F5867F13D80F4AE6
:10166000C6F1440012D02B19410803EBC101C3E9B4
:10167000002208338B42FAD1C30704D520F00100C1
:10168000304445F82020064B9D6070BD4320F8E7AC
:1016900000000010100100100000002011010010D7
:1016A00000ED00E0002370B52B4C82B0C4F884300C
:1016B000FFF738FF0122294BDA63636C012BFCD161
:1016C0000321264A244B11639C6B012CFCD102267A
:1016D000052521460523224A22480096FFF7ACFE45
:1016E00021462B46204A21480095FFF7A5FE0022FF
:1016F000042031461E4BFFF731FE214628460022CA
:101700001C4BFFF72BFE0022082011461A4BFFF757
:1017100025FE002209201146174BFFF71FFE00226D
:1017200006201146134BFFF719FE0022114B07202C
:101730001146FFF713FE0420FFF778FE00240F4B3D
:10174000A3FB0035AD0CE0B229460134FFF7BAFE29
:10175000062CF8D102B070BD0000014000300140FD
:10176000002F685900000540008C86470080054026
:10177000001BB70080D1F008006CDC0283DE1B4345
:1017800086B003B451FC0804CDE9020151FC090400
:10179000CDE9040151EC0A04CDE9060103BCF04790
:1017A000BDE800504EEC00C4BDE800504EEC01C452
:1017B000BDE800504EEC02C400BD000000B5FFF7CC
:1017C000DFFF02E010FE30F4F8D410B541EC100455
:1017D00043EC112451EC040453EC0524A0FB024C0F
:1017E0005FF0000EE0FB03CEE1FB02CE4CEC2044A8
:1017F0000024E1FB03E444EC30E480EE200451ECEF
:101800005004BDE81040704700B5FFF7B9FF02E093
:1018100010FE30F4F8D441EC800400EE010410EE28
:10182000010480EE400410EE130470470000000035
:101830000000000000000000DB60BE284A05919314
:10184000F4D5097F70374D7D66A5D83610E4104F6A
:10185000EA58947F58F1AEF78E1BC96DB874939017
:10186000BA4B920187647482C77A873FCF694A2C4A
:101870007D8D20BA21D1AE4B091C673A90DF17ADA0
:101880008E75644E7DCED460E21721270E4A7EEF1E
:10189000FF25FEC7036681F762C4CBFB479B82D658
:1018A000B39F4DDB6DC2F2C9D98FD1D38BFA97A705
:1018B000B1EE495D5E7CF9FA7DCE41CFBAA494E2E7
:1018C000ECD7FE9A4257E34711CC8015174B02F034
:1018D0001F054FF00107AF405FEA6218A7FB004504
:1018E0000026E7FB015603EB8803D3F81090A9FB11
:1018F00006A7D3F80C90A9FB05A8E9FB6678D3F8F6
:10190000089009FB0688E9FB0578A9FB04A6D3F833
:10191000049009FB0588E9FB0478D3F8009009FBE3
:101920000488BF1948F10008704700003018001003
:1019300050EA013208BF41F0004141F400210B00A0
:10194000020070470BB900200021002240F2000382
:10195000C3F6F0731CF0020F1CBF10461946704707
:101960000022002300245FF0004504E14DF804CD7F
:101970005FF0000C0CF1040C02F10402FFF7A6FF6B
:1019800098EAE879B9F1807F02D2BCF1400FF1D139
:1019900097EAE87741F2A616C0F64636A9FB06A0FC
:1019A0004DF21156C4F67E06A7FB06A1E9FB6601BF
:1019B0000626E7FB060109FB0611DCF1200A57D4D5
:1019C00021FA0CF320FA0CF201FA0AF942EA0902B0
:1019D000A2FB0394A2FB0395E3FB6345A4FB0596DE
:1019E000A4FB0597E5FB6567F60856EA47764FF0D6
:1019F000AA39A6FB0967D4EB070675EB45075FEA32
:101A00002739360B56EB075659F17F6717F14057C8
:101A1000C0B4A0FB0592A1FB0493E1FB6523A2FBEC
:101A20000596A3FB0497E3FB65674FF0AA39A2FB79
:101A300009A40025E3FB0945641955F100054FF0A1
:101A40008839A6FB0923B4EB131465F10005B0EB4C
:101A5000940061EBA501B0EB857061F10001CCF55C
:101A60008064A4F10E0400F082F9BDE8C0100CE01F
:101A7000CCF58064A4F10E0400F079F95DF804CB94
:101A8000002640F20007C3F6F0775FEAD87868F3E3
:101A9000000C5FEA6C090FD45FEA690906D31CF0F9
:101AA000040C57EA4C713000BDE8F0879CEA9C0CAE
:101AB00051EACC71BDE8F0871CF0040497EA447742
:101AC000C0B4A6E03CB500F004F830BC03C40CC5BB
:101AD00030BD11F0004C5FEA5C0C5CF0004C06E09D
:101AE0005FEA517C1CF0040C01E05FF0020CC1F3D2
:101AF0000A53A3F2FF32B2F5806F3FF419AF12F12F
:101B0000200FFFF61FAF012363F31F512DE9F047AC
:101B100002F10C02FFF7DAFE5FEA987444F1000468
:101B2000A8EB84780CEB440C4CEAD87C97EAE87775
:101B300098EAE878B8F5800FFFF418AF41F2A619DB
:101B4000C0F64639A8FB09A04DF21159C4F67E092A
:101B5000A7FB09A1E8FB69015FF00609E7FB0901A2
:101B600008FB0911B1F1007FFFF4FAAECA0E7C4BFD
:101B700003EB02133CCB801A994110D45FEA6C0648
:101B800036D476101CD200F06CF800F0AFF800F0FC
:101B9000ECF89CEA9C0C51EACC71BDE8F0875FEA56
:101BA0006C0649D4761017D200F058F800F0ACF863
:101BB00000F0D8F89CEA9C0C51EACC71BDE8F087A3
:101BC00000F04FF800F0AFF800F0CCF81CF0040C77
:101BD00051EA4C71BDE8F08700F040F800F0B2F82F
:101BE00000F0C3F81CF0040C51EA4C71BDE8F0871A
:101BF00000F037F8FCB400F096F800F0B3F81CF0F1
:101C0000040491EA4471FCBC03B400F06FF800F0E6
:101C1000ACF89CEA5C0494EA9C0491EAC4711CF060
:101C2000020F1DBF02460B4603BC0CBC1CF08044D7
:101C300091EA4401BDE8F08700F010F8FCB400F030
:101C400081F800F092F81CF0040491EA4471FCBCA5
:101C500003B400F059F800F085F8DAE7404261EB90
:101C60004101A1FB0167A0FB01237F084FEA360673
:101C7000F21847F10003A3FB0076E2FB0176002790
:101C8000E3FB01674FF05538A6FB08964FF00009BB
:101C9000E7FB086916EB090659F10007861B71EB93
:101CA00007074FEA033040EA1250A0FB0009E9FBA6
:101CB0000809A9FB01084FF03330A8FB000858FBC6
:101CC00011FA4AF6AA20C2F6AA2060FB1A99B2EBD2
:101CD000491273EBD9635AFB11FA4FF0C3606AFBE8
:101CE000108816EB481657EBD8677047A2FB0480A4
:101CF0004FF00001E3FB0401A6FB0583E7FB05347D
:101D0000181A64EB01017047A2FB04804FF0000138
:101D1000E3FB0401A6FB05836442E7FB05341818C6
:101D200044EB01017047A2FB05804FF00001E3FB8B
:101D30000501A6FB04836D42E7FB0435181845EB4B
:101D400001017047A2FB05804FF00001E3FB050194
:101D5000A6FB0483E7FB0435181A65EB0101704705
:101D6000BC1D0010404261EB410140F2F334B1FA76
:101D700081F20C2A0CD2153211FA02F3C2F12002C0
:101D8000D04021FA02F12244584141EB0251704700
:101D900069B1C2F12B0230FA02F3C2F12002914084
:101DA00090401943A4EB020201EB0251704701007D
:101DB0004FF00000A4F12004D9D170470B5C7325CB
:101DC000A974F50329B5FA010015FC7FEB2FAA00D1
:101DD00054D9440CC8D221061F60DA7F3663E8422A
:101DE000CFD3D9133C5EEA09F0889D7F2FC46D04E0
:101DF000D9860A1C1F17FE0DD09E3B7FA79B50EC77
:101E00003EF5EB23BCE7E611C7EFBD7ED21C9C0379
:101E1000B212F12B46F5DC1549771E7ECA057A3DD4
:101E2000F493F23314C0CB199CAC5F7DA0A0EF7A81
:101E30001D32193C1D22C61D2F2F7D7CB50FFB12B4
:101E400070EF5044530CC1213522787B5C8D6B4779
:101E500045A0F14B18DC6A2516AD687AC140695778
:101E60006DD9EA53391636293C2D2F79DFEA4ED346
:101E70008942B35BD639E02C2526E0776950EA31F8
:101E8000D9071164C0D3C43070625876CB5667F35B
:101E9000B3A2FD6B1C7E6834227AC7740EED7A2FD4
:101EA0003175E073CCE7FA3727111C73C08EC4FC80
:101EB0000E79147C0EA7A33B8ECD417113B7043B62
:101EC0008F7B5483D489D23EEBD8856F9A365B13CF
:101ED000D96F0B8CD4EA9442A3EF516D5F52CA4A7A
:101EE00026D33994706E0A464005236B8340C44163
:101EF000340B0E9C3DB0484907EFF168BF086DA355
:101F0000FD6179A485F2B14C9D847A663616F8C8D5
:101F1000D247E5AB1E22A24F2F623664ADC9C8D0AE
:101F2000E1ADFEB32470C35286AFA461730E736437
:101F30006A35FEBB28F0C555A3A3025FC6A58CB0C9
:101F400055B912C40892BA58A394415C90005354F6
:101F5000372DB0CB19F46E5BD88E9359367C8DA19A
:101F60006E3CAAD325022E5EFC32AF56D0C7A248E3
:101F7000F619FFDB3253F3607EED9253949AAD7AFB
:101F8000E1AD22E4CADF8E63C72B7350FF15EF1952
:101F9000BD85FBEBBB18FA65C7615C4DBD960F7E36
:101FA000494B4CF4F7816F68E617024AEB09EF1DC5
:101FB000FDBD4DFCC4D2B26A13E4B44600B970470B
:101FC00000F002B910B5094B84B01C684CB103464F
:101FD00000914FF0FF3203A90548A047012004B04B
:101FE00010BD00F033F9204604B010BDA419002044
:101FF000BD1F001000BEFDE708B5FFF7FBFF00BFE7
:1020000038B5064C064DFFF7ADFAAC4204D254F891
:10201000043B9847AC42FAD338BD00BFB83D00102E
:10202000C03D001003680846114618472DE9F041ED
:102030001546427D07468846002A46D0002D1DDD04
:102040000B780A2B23D0012D4FF0000C18D04646F8
:10205000012416F8012F21460A2A04F1010422D096
:10206000A542F6D165450BDC08EB050313F8013CEE
:10207000A3F10D03B3FA83F35B093B75BDE8F0816F
:102080003B68A5EB0C0108EB0C009847ECE7037DDF
:10209000002BD8D1036802210F489847012DE3D0C7
:1020A0004FF0010CD3E716F8013C0D2BD8D08C452E
:1020B00008EB0C00A1EB0C0101DA3B689847022108
:1020C00005483B689847A446CAE7294640463B680E
:1020D000BDE8F041184700BFC03F00102DE9F047B0
:1020E00082B00D4691461C460646FFF71BF94FF09D
:1020F000FF3C6FF000472E4A821841F100039445DF
:1021000077EB03013CBF62463B462A4801F02CFEB8
:102110006B1C804640D00CB3274F284B1C68B4B1D1
:10212000B9F1000F1CD1DFF89C9001E0246974B173
:102130002368002BFAD0D9F800300BB19C42F5D1BE
:1021400020462A463146B8472469002CF0D1B8F120
:10215000000F26D1284602B0BDE8F087184FDCE713
:102160004FF00A0ADFF85C9002E02469002CEED000
:102170002368002BF9D0D9F800300BB1A342F4D179
:102180002A4631462046B847012220460DF1070174
:102190008DF807A0B847E8E7304601F099FD0546FD
:1021A000B9E7044801F0D0FD284602B0BDE8F08749
:1021B00040420F00BC1100202D2000109815002077
:1021C00025200010A0150020F0B583B006468DF83C
:1021D0000700FFF7A7F84FF0FF356FF00044174AEC
:1021E000821841F10003954274EB03013CBF234682
:1021F0002A46134801F0B8FD124B07461C689CB1F3
:10220000114D01E024697CB12368002BFAD02B68C2
:102210000BB19C42F6D1204601220DF10701FFF7D8
:1022200005FF2469002CEFD117B9304603B0F0BD8B
:10223000034801F089FD304603B0F0BD40420F0075
:10224000BC11002098150020A015002038B50446C8
:1022500001F03EFD012305461A4620462946FFF7B8
:102260003DFF084B1C682CB163682BB1984724696B
:10227000002CF9D1284638BD2469002CF4D1284619
:1022800038BD00BF9815002070B5002501260468F0
:10229000002BE5668446616028469DF810E0E666FE
:1022A00016DD5D1E616F1029FCD000B30021A8422D
:1022B00004BF8EF0010641EA462141F4807121619C
:1022C000D4F88010616B490605D54FF0FF30636D7F
:1022D0008CF804E070BDA16F0029F1D021690130B4
:1022E000834202F8011BF3D0DCF80040DAE79CF8E7
:1022F00004108902DBE700BF2DE9F041002701242B
:10230000944602680546D7665160D4661C1E38465E
:102310009DF818601EDD297986F0010789027F0289
:1023200004F1FF3E70450CBFB8464FF000081CF8A2
:10233000013B0B4343EA08031361536BD906FCD5F9
:10234000D2F8801049B970451CD0013084424FF05A
:102350000001E7D12E71BDE8F0814FF00108536D07
:10236000536B9B05FCD5136EB8F1000FEDD069B12E
:10237000CB070BD411F0080F08BF4FF0FF302E71C0
:10238000BDE8F081002EE0D1B046E9E74FF0FF3024
:10239000E0E700BFF8B5044605200F46FFF746F812
:1023A00000EB570CBCFBF7FC204D0CEB4C02A5FBE3
:1023B00002651F49AE088F4200EB4003ACEB950568
:1023C0002ED801F1D64101F5A10101F62C01A1FBA6
:1023D00003139B0D013300214F2A98BF012224686B
:1023E000B0FBFCF0E166216804F5805781F0040140
:1023F00001F00601396088BF0C49E56184BFA1FB8B
:10240000021292092662C4F8A0202246012152F845
:102410007C5F6B409BB202F580521360E166F8BDB1
:102420000449A1FB0313DB0D0133D4E7CDCCCCCCA5
:102430003F420F00893BE6550E4A30B4904214BF2C
:10244000202210220C4D0D4B0D4C2A601A60A368FF
:1024500032EA0303FBD140F26515032402680371DD
:10246000D3661560D3639363C2F8884030BCFFF72E
:1024700091BF00BF941100200020024000300240B4
:102480000000024010B49DF8044001945DF8044B34
:10249000FFF732BF10B49DF8044001945DF8044B7F
:1024A000FFF7F2BE70B500F02DF90C234026194C51
:1024B000FF22A3670E201849FEF7EEF932460021ED
:1024C000164801F041FB0125002380211348144ADE
:1024D000418445700683068782604360136042F83A
:1024E000043C80F8213080F83B3043620D4B4FF0C4
:1024F0000056C360C362803B836201F029FC4FF445
:1025000080320949094B25642846E664C4F89010D6
:10251000DA6470BD000011504D030020A4150020A6
:10252000840010500001105010D001000020115004
:1025300001210E20FEF76AB900220248114600F080
:1025400001B900BFC4150020044B197021B14FF42C
:102550000032034BC3F89020704700BFF1190020F0
:10256000002011500B785B0602D14B78052B00D070
:1025700070474B88014ADBB213607047000011506E
:10258000CB782DE9F04103F0030EBEF1010FC3F348
:1025900001005BD0002791F802C0344C0CF07F02A0
:1025A0005600898806EBDC1304EB43134FEADC1575
:1025B000D876C1F30A0185F0010083F802C01983BF
:1025C0005870DF70D3008DBB2948043304EB821CA4
:1025D00003EB0008CCF808801F5082B3254BD200D3
:1025E0001344CCF80430244B3F311A6821F03F01EA
:1025F000BEF1020F08BF4900114419601F4B771943
:1026000004EB47179942FA602BD82E4404EB46138B
:10261000D97E82F0A04282F480125B6842EA816235
:1026200042F000421A600120BDE8F081104804EB3E
:10263000821C0344CCF8283040F832704AB900229A
:102640000F4904EB4513D9605A60ECE70020BDE860
:10265000F081D20002F1A04202F58012CCF82420D1
:10266000C1E7FEF779FFFA68CFE700BFA4150020A5
:102670008000105004001050A8190020FF0F1050C7
:102680000001105001F064BB8C4608B511460748A4
:102690001A460CF07F034FEADC1C0CEB430C00EBFA
:1026A0004C1000F04FF8012008BD00BFA415002019
:1026B00011F07F0205D100290CBF02200120064B3A
:1026C0009866C909054B01EB420003EB40104FF43B
:1026D0000062002101F044BB00201150A41500202D
:1026E00011F07F0300D17047002205485B0003EB27
:1026F000D11300EB43106FF40061C27001F030BBE6
:10270000A41500204FF0805209480A4908B50A4B29
:1027100002600A609968C94311F08051FAD14FF400
:102720008052064801F010FA0922054B5A6708BD8D
:102730000020024000300240000002400000105023
:102740000000115000234FF0010C10B580F81AC0A2
:102750008282C3820161044601F00AFB20B14FF47A
:102760000032074BC3F89020204601F0F5FA10B173
:102770000123237710BD2046BDE8104001F0DCBAEC
:1027800000201150002070472DE9F0414FF0000863
:102790001C4D044642462B781B4F1C4E0DE03368FF
:1027A00013EB421324D0DB682046984708F1010858
:1027B0002B785FFA88F2934206D39342A2EB03038D
:1027C000EDD807EB4313EEE754220021104801F047
:1027D000BBF94FF0FF330E482022041D4360C4E9CB
:1027E0000133E360FF21BDE8F041143001F0ACB9E2
:1027F0004FF0E023D3F8F03DDB0700D500BEBDE885
:10280000F08100BFF0190020C43F001048130020E1
:102810004C140020704700BF704700BF0020704775
:102820000020704700207047704700BF704700BF0E
:10283000704700BF704700BF024B5878003818BF80
:10284000012070474C140020024B1878C0F3800020
:10285000704700BF4C1400202DE9F047DFF8E490EA
:1028600099F80030FF2B55D10D4600293DD00021AD
:1028700054220646294801F067F90022284C294BCA
:1028800020461A70FEF786F9274B28481C60284C12
:10289000FEF78EF9204601F009F9264A264B14600E
:1028A00023B12648AFF30080254B18604FF0000A93
:1028B000224C53462278DFF89080214F0DE03A6891
:1028C00012EB431311D05B687BB198470AF1010A00
:1028D00022785FFA8AF3934211D89342EFD39B1A7E
:1028E00008EB43135B68002BEFD14FF0E023D3F8E4
:1028F000F03DDB0700D500BE0020BDE8F08729468B
:10290000304689F80060FFF7CDFD0028EDD0304655
:10291000FFF70EFE0120BDE8F08700BF4C14002039
:1029200044140020F2190020A0140020B01100204F
:102930009C110020A414002000000000F0190020C9
:1029400048130020B8110020C43F00102DE9F04FBB
:10295000DFF8ACA28BB09AF80030FF2B00F0E880D3
:10296000A04CA14DDFF894B2A04E27687B69EFF32D
:10297000108272B6D3E8CF0F01210028FAD1C3E844
:10298000401F0028F6D1BFF35F8FBA61384607A910
:1029900000F0F0FF00237A69C2E88F3FBB6983F340
:1029A0001088002800F0C4809DF81D30013B072BE3
:1029B00000F26A83DFE803F0A1AB8F9788350A0441
:1029C000089B002BD1D009989847CEE79DF820109E
:1029D00001F07F0705EB470000EBD11090F8343091
:1029E00023F0010380F8343090F8343023F00403EE
:1029F00080F83430002F00F09E80027D9BF800307C
:102A00009A4280F08D807A4B1B6813EB421300F0E2
:102A100088809F699DF82120099B9DF81C00B8477C
:102A2000A3E73378002B7CD03378013BDBB23370E3
:102A3000337803F0FF00002B97D16B4F9DF81C906B
:102A40003B7843F001033B7097F8343060F30003A8
:102A500087F8343097F8343060F3820387F83430E5
:102A600097F8353060F3000387F8353097F8353044
:102A700060F3820387F8353000F036FC9DF8203093
:102A800003F06002602A66D0402A76D003F01F036C
:102A9000012B00F0B780022B7BD0002B5BD1202ACA
:102AA00000F0DE81002A56D19DF82130092B52D842
:102AB000DFE813F0A50197015100B60151008A012A
:102AC0005F0151005401E7002B78D9077FF54DAF26
:102AD000FFF7B0FE49E7EB78DA077FF546AF0898D5
:102AE000FFF79AFE41E72B78D8077FF53EAF2878AD
:102AF000C0F3C000FFF79CFE37E79DF81C00FFF70E
:102B000043FE00F0E7FB9DF82030AB702DE79DF809
:102B10001C00FFF739FE00F0DDFBFFF787FE24E71E
:102B200011D04FF0E023D3F8F03DDC0700D500BE14
:102B30000BB0BDE8F08F099B9DF821209DF81C008B
:102B400000F0E6FB11E72B4B63E7FDF7A9FC02461B
:102B5000002840F07C814FF0E023D3F8F03DDF0700
:102B600000D500BE9DF81C000021FFF7A1FD8021CB
:102B70009DF81C00FFF79CFDF7E61F4800F0B4FB32
:102B80000121484608AAFFF7FDFD00287FF4EDAEBD
:102B9000E8E79DF8241011F0700FDCD1174B01F01D
:102BA0007F08187807EB480303EBD11393F814C0A0
:102BB0004FEA480884454FEAD11350D340F06D8165
:102BC0000C480190002A00F06C81019F786900F0A8
:102BD0008BFB012148467B6908AA984700287FF4AF
:102BE000C4AEBFE7A41400204C140020F21900204A
:102BF00048130020C43F001085270010F019002062
:102C0000B81100209DF824300F2BABD8B04A3B44BC
:102C10001B79127893422ED3A4D1AE4F786900F07D
:102C200063FB012148467B6908AA984700287FF486
:102C30009CAE9DF8203013F0600793D19DF82130B1
:102C40000A3B012B8ED800F04FFB9DF821300A2B58
:102C500000F0FB81484608A900F0CAFA85E69E48C4
:102C6000006800EB4C100190002A00F01A81002847
:102C70003FF478AFA9E7984A176817EB4317CDD10F
:102C800070E77B789DF82280984500F05A817B7828
:102C9000002B40F0C68187F80180B8F1000F00F0EA
:102CA0004E8108F1FF30C0B2FDF7FAFB0146002863
:102CB00000F064814378022B40F06081C27938785B
:102CC000C2F340131B01C2F3801220F0300043EA2C
:102CD000421303433B704B88CDF80C90CB18019303
:102CE0000931019B8B4240F2AB814B780B2B00F0FA
:102CF000B6814FF0010C042B40F040814FF00009E9
:102D0000019BC8465B1A9BB20293714BCDF810C071
:102D10001B781BE0704B1B6813EB481300F02E81EF
:102D2000029A1B690398059198470828024605995D
:102D300009F1010903D9029B834280F00781644BAA
:102D40005FFA89F81B784345C0F018814345A8EB2A
:102D50000303DFD85F4A02EB4313E1E77B78484681
:102D60008DF81A300DF11A02012308A900F05AFA61
:102D7000FBE5BDF82200030A013B020AC0B20E2B9C
:102D80003FF6F0AE01A151F823F000BFAD2F0010C7
:102D90003D2E0010E92F0010652B0010652B001050
:102DA000CB2F00103D2E0010652B0010652B00105E
:102DB000652B0010652B0010652B0010652B001093
:102DC000652B00109F2F001008A800F093FA4846CA
:102DD0009DF82210FFF7B0FB3B7843F002033B70F5
:102DE000C3E5BDF82230012B7FF4BCAE3B784846EA
:102DF00023F0080308A93B7000F0FAF9B5E548464E
:102E00003B789A0802F00202C3F340131343ADF873
:102E10001A300DF11A02022308A900F003FAA4E502
:102E2000BDF82230012B7FF49DAE3B78484643F03D
:102E3000080308A93B7000F0DBF996E5022A3FF48D
:102E400084AEFFF7EFFC024600283FF48BAE484605
:102E5000538808A900F0E6F900287FF486AD81E6E2
:102E60009DF824300F2B3FF67DAE194A3B441B7969
:102E70001278934227D2184A176817EB43173FF48A
:102E800071AE786900F030FA012148467B6908AAE2
:102E9000984700287FF469AD64E6002A7FF462AEAB
:102EA00001929DF821C00CF0FD02012A16D0BCF160
:102EB000000F7FF450AEB844434493F83430484692
:102EC000C3F34003A3E77FF44DAE024FD9E700BF41
:102ED000F0190020C43F001048130020BDF8222044
:102EE000BAB9BCF1010F9AF8000000F08580029396
:102EF000FFF7DEFB029BB844434493F8342042F0D2
:102F0000020283F8342093F8342042F0010283F85F
:102F10003420019B002B3FF428AD586900F0E4F900
:102F2000019B01215B6908AA48469847002000F0F0
:102F3000DBF997F83530DB073FF517AD8AE6FFF789
:102F400075FC484608A900F053F90EE5DDF810C0FD
:102F5000BCF1000F00F08980887800EB0C03DBB235
:102F600003E098428CF804807FD007EB000C9CF8BB
:102F700004E00130BEF1FF0FC0B2F2D04FF0E02309
:102F8000D3F8F03DD90700D500BE4FF0E023D3F8C9
:102F9000F03DDA0700D500BE00237B70E2E5FFF7C5
:102FA0003DFC024600287FF452AFDBE5FDF770FAE6
:102FB000024600283FF4CFAD4846122308A900F08E
:102FC00031F900287FF4D1ACCCE5FFF729FC0246AB
:102FD00000283FF4C7AD4846137808A900F022F94D
:102FE00000287FF4C2ACBDE5BDF82410FDF75CFA03
:102FF00002460028EFD1B5E5CDE90232FFF770FBBC
:10300000029BB844434493F83410039A62F341019D
:1030100083F8341093F8341062F3000183F834100D
:1030200077E700214846FFF78FFA4846FFF72AFB6B
:10303000BB7848460193FFF7A7FB019BBB702AE6CC
:10304000DDF80C90FFF7F0FB7BE74846012308A969
:103050000DF11A028DF81A7000F0E4F885E40B788F
:1030600091F803C019444B7845E643460B48049257
:10307000029100F053FC0A4B02991B78049A4345D5
:103080001144BFF42EAE79E74FF0E023D3F8F03DC2
:10309000DB077FF56AAC00BE67E400BF6014002068
:1030A000F01900202DE9F84F0A9F002A40D00C4665
:1030B0001E4615464FF0000ADFF87C90DFF87C8052
:1030C00018E0204698F8021099F800B000F0F6FBDE
:1030D000E0B121465846FFF753FAF0B1A2780AF161
:1030E000010AD10916BF0B9B3A701A702278AA45C3
:1030F00014441DD06278052A0FD1E17801F0030154
:10310000B1420AD1A27812F0700FDAD04FF0E0236A
:10311000D3F8F03DDA0700D500BE4FF0E023D3F836
:10312000F03DDB0702D40020BDE8F88F00BEFAE7CF
:103130000120BDE8F88F00BFB81100204C1400201A
:103140000B46064A06481168DA09343203F07F0359
:1031500002EB4303184400F087BB00BFA01400201B
:103160004C14002010B5194801F07F0C00EB4C0006
:1031700000EBD11090F834C01CF0010F08D04FF0D4
:10318000E023D3F8F03DDA0700D500BE002010BDE3
:1031900000F1300494F804C00D484CF0010C0078A4
:1031A00084F804C0FFF770FA0028F0D14FF0E02156
:1031B000227960F300022271227960F38202227187
:1031C000D1F8F03DDB07E1D500BEDFE74C1400206D
:1031D000B8110020054B01F07F0203EB420303EB23
:1031E000D11191F8340000F0010070474C14002018
:1031F00030B50B4C8C46A646054608684968002346
:10320000AEE803009CF800102846C943C4E9023325
:10321000BDE830401A4601F08001FFF7A3BF00BFB0
:103220008C1300202DE9F041284F4FF00008BE46D6
:103230008C46064608684968BA60AEE80300A7F8FD
:103240000E801546BCF80620934228BF1346BB816A
:103250009AB11C4633B3DDB197F90030402C28BF3A
:103260004024002B29DB414623463046184AFFF70D
:1032700079FF68B10120BDE8F0819CF80010134689
:10328000C943304601F08001FFF76CFF0028F1D1FF
:103290004FF0E023D3F8F03DDB0700D500BE00205F
:1032A000BDE8F0811A46397801F0800123463046A6
:1032B000FFF758FF0028DDD1EAE7224629460448F7
:1032C00000F090FC8021024AF0E700BF8C13002040
:1032D0004C1300200022034BC3E90022C3E9022261
:1032E0001A6170478C130020014B1861704700BFB2
:1032F0008C13002030B40246044C0025234600689D
:103300005168C4E9025530BC03C370478C130020D8
:1033100070B53D4CC90922780646B1EBD21F1D4657
:1033200082B017D053B14FF0E023D3F8F03DDB0764
:1033300002D4002002B070BD00BEFAE72146FFF7BC
:1033400011F923691BB12246032130469847012019
:1033500002B070BD94F90030002B06DBA068002895
:10336000E7D02A46294900F03DFCE089A168E388BE
:10337000284480B229448342E081A16016D03F2DC9
:1033800014D9A28994F90040131A9BB2402B28BF8C
:103390004023002C27DB90424FF0000131D01B4A24
:1033A0003046FFF7DFFE0028D1D1BCE7236923B107
:1033B00002213046144A984760B121780023C9435E
:1033C00030461A4601F08001FFF7CCFE0028AAD053
:1033D0000120BDE701463046FFF76AF980213046FB
:1033E000FFF766F9B3E7904208D01A460748019301
:1033F00000F0F8FB8021054A019BD1E780210022E3
:10340000CEE70A46CCE700BF8C1300204C13002007
:10341000704700BF01207047704700BF704700BF72
:1034200010B50C4B00EB400003EB80035C78FFF71A
:1034300003FA08B9002010BDFFF706FA0028F9D1F9
:10344000002CF7D02146FFF7C5FE80F00100C0B286
:1034500010BD00BF141400202DE9F04F81B09DF97C
:1034600028909DF92C809DF9307018B1002001B092
:10347000BDE8F08FDFF858A00D469AF80110164607
:103480009B460446FFF75CFE0028EFD06BF3070471
:1034900069F30F2468F3174467F31F646DB90523BC
:1034A000094A1674C2F811400020084A9AF801101F
:1034B00001B0BDE8F04FFFF755BE034A062315746F
:1034C0005674C2F81240EFE7E4130020F413002012
:1034D000141400200022024BC3E900229A607047B6
:1034E00014140020012070470022024BC3E900227F
:1034F0009A60704714140020F0B54B7983B0032B09
:1035000011D191F804C00C46CCEBCC051235ADB20C
:10351000954202D8234F7A785AB14FF0E023D3F87E
:10352000F03DDA0703D40025284603B0F0BD00BE05
:10353000F9E70978621892F801E0BEF1210FECD1A9
:10354000BA60615C06461144624607F1010CCDF891
:1035500004C007F1020CCDF800C0FFF7A3FD00285E
:10356000DBD0A379BA68012B08BFE379B2F8072052
:1035700008BFFB700123BB71A378B978BA803B7098
:103580000029D1D010233046074AFFF7EBFD002871
:10359000CAD14FF0E023D3F8F03DDB07C4D500BE1D
:1035A000C2E700BF141400200414002070B51446B4
:1035B000127882B002F01F0CBCF1010F13D1684EDB
:1035C000B4F804C033785FFA8CFC63450BD112F079
:1035D000600205460AD1012902D0012002B070BD67
:1035E0006378062B22D0002002B070BD202AFAD1C9
:1035F0006378013B0A2BF6D801A252F823F000BFF2
:10360000DB360010CB360010BB360010E73500105B
:10361000E7350010E7350010E7350010E7350010FA
:1036200081360010633600104D36001063881B0A87
:10363000212B7DD0222BD6D11046FCF72DFF214621
:103640000246B3882846FFF7EDFDC6E7012912D0F0
:103650000329C2D161880020C9B2B171FFF7D8FE39
:10366000BBE70129B9D161880020090AF171FFF790
:10367000D1FE0028B7D021462846FFF7B9FDACE7B8
:10368000012960D00329A8D1E08863881028044666
:1036900028BF102413F0FF014FEA1322314B07D04B
:1036A000012805D91878884202D1013CA4B201331F
:1036B00000200094FCF77EFF8FE701298DD10B4697
:1036C000294A2146FFF7AEFD87E7012985D10B4640
:1036D000264A2146FFF7A6FD7FE701297FF47DAF4B
:1036E000E6886388102EB44628BF4FF0100C13F004
:1036F000FF004FEA132230D0012E2ED90E46194B6F
:103700000CF1FF3C1FFA8CFC03F8010B0146CDF8CD
:1037100000C00020FCF74CFF33189BB2BBB94FF040
:10372000E023D3F8F03DDB077FF55DAF00BE5AE73D
:10373000B268002A3FF457AF2146137802B0BDE8C3
:103740007040FFF76FBDE388102B3FF64CAF21466A
:103750002846044AFFF766FD3FE70026014BD5E700
:1037600014140020E41300201A1400201B1400205D
:1037700070B50C46204D114695F802C095F801E051
:10378000A44582B00BD0A6451FD04FF0E023D3F85C
:10379000F03DDB0700D500BE002002B070BDE6455D
:1037A0009CB213D00646C1B902220846134B0094BE
:1037B000FCF700FF10233046104AA978FFF7D2FC2F
:1037C0000028E2D0012002B070BD9CB261B9084669
:1037D00022460B49FFF720FEF4E723460221002092
:1037E000064AFFF71BFEE5E7234601210020044AB5
:1037F000FFF714FEE6E700BF1414002004140020B5
:10380000F413002010B582B0C9B101280CD80B7890
:1038100053B1144C012B235402D0012002B010BD2F
:10382000FFF71AF80028F8D14FF0E023D3F8F03D65
:10383000DB0702D4002002B010BD00BEFAE701246D
:10384000084601A9ADF80440FFF706F838B94FF073
:10385000E023D3F8F03DDA07EDD500BEEBE7014BEE
:103860001C70E8E740140020F8B5037813F0010459
:103870001AD1037805465A07C3F3800701D52046BD
:10388000F8BD0E464FF0FF31304600F051FA2B786C
:1038900013F001040BD12B785B0709D42B7801249A
:1038A00043F004032B7003E000242046F8BD3C469F
:1038B000304600F049FA2046F8BD00BFC378828840
:1038C00003F003000228C2F30A0215D003280AD02D
:1038D00001281CD1022940F2FF3308BF4FF4806356
:1038E00093420DD37047022914BF40234FF48063E5
:1038F000934205D30120704702290AD0402AF9D902
:103900004FF0E023D3F8F03DDB0700D500BE0020E8
:103910007047B2F5007FEDD0F2E700BF0A44914254
:1039200026D291F801C0BCF1050F05D091F800C076
:1039300061448A42F5D8704700B591F802C00CF096
:103940007F0E00EB4E0E4FEADC1C0EF80C3091F8A7
:1039500000C061448A4209D991F801C0BCF1050F49
:10396000EBD091F800C061448A42F5D85DF804FBC1
:10397000704700BF38B5044600690D4618B14FF0D6
:10398000FF3100F0D5F92189638989B29BB2A28801
:10399000994236BFC3EB4200C81A401880B250B3F8
:1039A000824209D291422CBF891A89188BB29A425D
:1039B000638103D89B1A9BB29A42FBD9E2882168A3
:1039C000C2F30E0202FB0311284600F00BF96189D5
:1039D000012589B24B1C9BB29942A2880ED90023C3
:1039E00002FA05F15B1A9BB22069638108B100F00D
:1039F000ABF9284638BD054663899BB2B3EB420F4D
:103A00004FEA4201F0DBEDE7F8B50446C0680E4628
:103A100018B14FF0FF3100F08BF9258923896189B6
:103A20009BB289B2A2888B4236BFC1EB42015B1ABE
:103A30005B189BB29A42ADB208D8E779FF0905D16D
:103A4000E06808B100F080F93846F8BD954228BF1B
:103A50002B4618D39B1A9BB29342FBD2E288206874
:103A6000C2F30E0202FB0300314600F0BBF86B1CF0
:103A70009BB29D42A28812D9002351005B1A9BB2CF
:103A800001272381DCE7E2882068C2F30E0205FBF0
:103A90000200314600F0A6F80135A288ABB2B3EBC4
:103AA000420F4FEA4201EBDBE8E700BF10B50446E6
:103AB000C06818B14FF0FF3100F03AF9206918B131
:103AC0004FF0FF3100F034F90023E0686381238177
:103AD00008B100F039F9206908B100F035F901208A
:103AE00010BD00BF30B50C4683B00546684600F0F7
:103AF00023F8082C28BF082469462846224600F0EF
:103B000071F8204603B030BD00B545F247308BB0A8
:103B1000FDF7E4FC01220346092101A89847DDE9ED
:103B20000332044912BA1BBAC1E900230BB05DF895
:103B300004FB00BFE41900200346024A03CA1860D0
:103B400059607047E4190020830730B546D08418C7
:103B5000844604E003F8011B9D0704D09C46A4455D
:103B60006346F7D130BD013A0244A2EB0C02032AAE
:103B700029D9CCB20F2A04EB042404EB04442FD936
:103B8000A2F1100C03F110052CF00F0CAC44C3E9AA
:103B90000044C3E9024410336345F8D112F00C0F1E
:103BA00002F00F0E18D02EF0030CAEF104051A46E9
:103BB0009C4442F8044B6245FBD125F003040433D6
:103BC0000EF003022344002ACCD0C9B21A4403F8F1
:103BD000011B9342FBD130BD7246F4E70346C6E7B2
:103BE0009646E0E7844641EA000313F0030349D117
:103BF000403A23D30B6803604B6843608B68836053
:103C0000CB68C3600B6903614B6943618B69836156
:103C1000CB69C3610B6A03624B6A43628B6A83623E
:103C2000CB6AC3620B6B03634B6B43638B6B836326
:103C3000CB6BC36340304031403ADBD230320BD3E0
:103C40000B6803604B6843608B688360CB68C3601C
:103C500010301031103AF3D20C3205D351F8043B36
:103C600040F8043B043AF9D2043208D0D2071CBF12
:103C700011F8013B00F8013B01D30B88038060463B
:103C8000704700BF082A13D38B07B1D010F003038D
:103C9000AED0C3F10403D21ADB071CBF11F8013BFD
:103CA00000F8013BA4D331F8023B20F8023B9FE728
:103CB000043AD9D3013A11F8013B00F8013BF9D29B
:103CC0000B7803704B7843708B7883706046704735
:103CD00020F0030110F00300C0F1000051F8043B94
:103CE00000F1040C4FEACC0C6FF000021CBF22FA6A
:103CF0000CF213434FF0010C4CEA0C2C4CEA0C4C28
:103D0000A3EB0C0222EA030212EACC1204BF51F820
:103D1000043B0430F4D0C2F1000102EA0102B2FA1D
:103D200082F2C2F11F0200EBD2007047F8B500BF6B
:103D30005FF800F0E50100205FF800F0BD0A002008
:103D40005FF800F03D1000205FF800F01D02002039
:103D50005FF800F0590200205FF800F0450A0020EB
:103D60005FF800F0790A00205FF800F07D01002084
:103D70005FF800F01D0A00201116001085150010D4
:103D8000B9150010A5160010F11500100915001046
:103D900039160010F5140010490B00103D160010E4
:103DA000F90E00105515001025160010D51500103D
:103DB000A5070010CD070010093B001011020010EC
:103DC0003031323334353637383941424344454651
:103DD0000000000054696E795553420054696E79B1
:103DE0005553422044657669636500000A2A2A2AF1
:103DF0002050414E4943202A2A2A0A000A00000086
:103E00004E6F207370696E6C6F636B7320617265A7
:103E100020617661696C61626C6500004861726462
:103E20007761726520616C61726D20256420616C20
:103E3000726561647920636C61696D65640000007E
:103E400048617264206173736572740052656C65B9
:103E500061736500626F6F74325F7732357130382D
:103E600030000000322E322E300000007069636F87
:103E7000325F7700485736004A756E202036203270
:103E800030323600556E68616E646C65642049524C
:103E90005120307825780A0065702025303258206E
:103EA00077617320616C7265616479206176616904
:103EB0006C61626C6500000043616E277420636F63
:103EC0006E74696E75652078666572206F6E206904
:103ED0006E61637469766520657020253032580004
:103EE0000904000009022200010100A032090400B7
:103EF000000103010200092111010001224F000706
:103F0000058103100005000005010902A1018501DA
:103F10000901A100050919012905150025019505CB
:103F2000750181029501750381010501093009318F
:103F30001581257F95027508810609381581257F31
:103F4000950175088106050C0A38021581257F95B3
:103F50000175088106C0C000120100020000004087
:103F6000FECA044000010102030100000600525095
:103F7000D3F075424C3E001006005250E182887F1B
:103F8000543E001006005250ABB36053643E001024
:103F900006005250BBFF3CB66C3E0010060052506B
:103FA000861C0302743E0010060052505422A29D4B
:103FB000783E001005005250DE65F468DC500010B9
:103FC0000D0A000000000000D5340010E534001098
:103FD000E9340010F9340010AD35001071370010CD
:0C3FE00000000000080052501210020007
:083FEC00F8FBFF7F010000005B
:103FF4006C3F0010783F0010843F0010903F001089
:104004009C3F0010A83F0010B43F0010E43F001094
:104014004FF050412DE9F0410027044616461D4655
:10402400D1F8008008E0C1E88F7F8CF31088304617
:10403400294600F0F1FFE8B92168EFF3108C72B65D
:10404400D1E8CF2F0123002AFAD1C1E8423F002A48
:10405400F6D1BFF35F8F94F904302168002BE2DAC4
:10406400002384F80480C1E88F3F8CF3108801207A
:10407400BDE8F0810020BDE8F08100BF30B50468E0
:10408400EFF3108C72B6D4E8CFEF0125BEF1000F28
:10409400F9D1C4E84E5FBEF1000FF4D1BFF35F8FD6
:1040A40090F904400568002C10DB0021C5E88F1F3F
:1040B4008CF310884FF0504595F90050A54201D17A
:1040C400084630BDBDE83040FFF7A2BF4FF0504274
:1040D400126800230271C5E88F3F8CF31088012019
:1040E40030BD00BF70B505460C4600F08DFF02469A
:1040F4000B464FF47A704FF0FF3E6FF0004CE4FB38
:10410400002396457CEB030138BF72462846BDE880
:10411400704038BF6346FFF77BBF00BF0368EFF30F
:10412400108272B6D3E8CFCF0121BCF1000FF9D1D0
:10413400C3E84C1FBCF1000FF4D1BFF35F8F4FF005
:10414400FF0C0023016880F804C0C1E88F3F82F3AC
:10415400108840BF704700BF002108B5134B4FF4CF
:10416400707299601248D960196159619961D96175
:10417400196259629962D962196359639963D9635F
:10418400196459649964D964196559659965D9653F
:10419400196659669966D966196759679967D9671F
:1041A40000F02EFF034B044A1A6008BD00001050B3
:1041B400E4150020A8190020800110502DE9F04FCB
:1041C4001F4B85B0D3F858A0BAF1000F22D00024B9
:1041D40001254FF4E069DFF870801A4F01E0202CCC
:1041E40018D00AEA0502611C2346AB46CCB26D0026
:1041F400002AF4D004F0010203F0FE06164407EB93
:1042040046163046C8F858B000F00AFC28B93AEA15
:104214000B0AE4D105B0BDE8F08F00238DF8093016
:10422400B37801A88DF80830F38A0121ADF8049021
:10423400039300F013FC304600F098FBE7E700BF5F
:1042440000001150A415002000301150F0B5BB4BF4
:1042540085B0D3F8985015F4003674D0B84BB94CE7
:10426400996A94F83B30B84A022B116000F0D4806C
:10427400002694F87B30022B00F03B8194F8BB308D
:10428400022B00F07D8194F8FB30022B00F06C814E
:1042940094F83B31022B00F0448194F87B31022BDB
:1042A40000F0338194F8BB31022B00F0B68194F80E
:1042B400FB31022B00F0A68194F83B32022B00F074
:1042C400968194F87B32022B00F0868194F8BB32FD
:1042D400022B00F0768194F8FB32022B00F0668109
:1042E40094F83B33022B00F0568194F87B33022B75
:1042F40000F0A48094F8BB33022B00F0998194F869
:10430400FB33022B00F0B4803EB9904B1B7823B9E9
:104314004FF400328E4BC3F890204FF44072874B19
:1043240001219B6C01A8C3F30A03ADF80420029396
:1043340000F094FBEA064FF40036864C07D5FFF7ED
:104344003DFF264603E0EA064FF01004F7D4EB03E2
:1043540022D57C4C46F48036A37E002B40F0998015
:10436400012394F83A20E370002A40F0AD80012341
:104374004FF4C061784A84F82330ADF8041092E811
:10438400030004AA02E90300194601A800F066FB31
:104394004FF400326E4B1A65E90408D46A041DD444
:1043A4002B042AD4AE4240F0C58105B0F0BD0024F0
:1043B400624B46F480561C60FFF7CEFE4FF48073C8
:1043C400012101A8ADF804308DF8084000F046FB47
:1043D4004FF400225E4B1A656A04E1D54FF4806302
:1043E400012101A8ADF8043000F038FB1022584B2D
:1043F40046F480461A652B04D4D54FF4A0630121FA
:1044040001A8ADF8043000F029FB4FF40062504BD2
:1044140046F400461A65C5E794F83A60002E3FF466
:1044240028AF94F83C30002B3FF423AF002304F171
:10443400200084F83C3000F0C1FA1AE794F87A734B
:10444400002F3FF457AF94F87C33002B40F0648185
:1044540094F8BB33022B40F0F48094F8BA33002B69
:1044640040F0EB8094F8FB33022B7FF456AF3E46CA
:1044740094F8FA33002B3FF447AF94F8FC33002B45
:104484003FF44BAF0023354884F8FC3300F096FA30
:1044940043E70221324B294A1966536E9F07FCD524
:1044A4004FF440520021274800F066FA254800F0F6
:1044B4005DFA0222264B5A661A66012394F83A20C2
:1044C400E370002A3FF453AF254A1366A2F5005265
:1044D400536ED807FCD54FF440520021214800F018
:1044E4004BFA204800F042FA0122194B5A661A6628
:1044F4003DE794F87A70002F3FF4C0AE94F87C3016
:10450400002B40F001813E46B8E694F87A71002F02
:104514003FF4C8AE94F87C31002B40F0ED803E4669
:10452400C0E694F83A71002F3FF4B7AE94F83C31EA
:10453400002B40F0D9803E46AFE600BF000011508A
:1045440000000B40A41500209C150020F119002048
:104554000030115010000200000010508419002097
:1045640000201150C415002094F8FA70002F3FF475
:104574008FAE94F8FC30002B40F08E803E4687E6E8
:1045840094F8BA70002F3FF47EAE94F8BC30002B40
:104594007AD13E4677E694F83A73002F3FF4A5AEFD
:1045A40094F83C33002B57D13E469EE694F8FA72B9
:1045B400002F3FF495AE94F8FC32002B5CD13E46BC
:1045C4008EE694F8BA72002F3FF485AE94F8BC32AC
:1045D400002B49D13E467EE694F87A72002F3FF4D0
:1045E40075AE94F87C32002B76D13E466EE694F894
:1045F4003A72002F3FF465AE94F83C32002B63D13D
:104604003E465EE694F8FA71002F3FF455AE94F8F6
:10461400FC31002B50D13E464EE694F8BA71002F7F
:104624003FF445AE94F8BC31002B3DD13E463EE606
:1046340094F8BA33002B3FF462AE94F8BC33002BE9
:1046440071D194F8FB33022B7FF467AE94F8FA33FC
:10465400002B3FF462AE10E70023394884F83C3362
:104664003E4600F0ABF940E60023364884F8BC32FD
:104674003E4600F0A3F92EE60023334884F8FC32CA
:104684003E4600F09BF92BE60023304884F8BC300A
:104694003E4600F093F9F6E500232D4884F8FC30FB
:1046A4003E4600F08BF9F3E500232A4884F8BC3138
:1046B4003E4600F083F9FAE50023274884F8FC31EC
:1046C4003E4600F07BF9F7E50023244884F83C32A9
:1046D4003E4600F073F9F4E50023214884F87C3267
:1046E4003E4600F06BF9F1E500231E4884F83C31A6
:1046F4003E4600F063F9D0E500231B4884F87C3182
:104704003E4600F05BF9CDE50023184884F87C3080
:104714003E4600F053F9B1E50023154884F87C3394
:1047240000F04CF994E60023124884F8BC3300F0FE
:1047340045F986E7104886EA050100F05DFC00BFF4
:10474400C4180020441800208418002044160020B7
:10475400841600204417002084170020C41700206A
:1047640004180020C416002004170020041600209A
:104774000419002044190020843E00102DE9F0475C
:10478400848A058BC278A54228BF2546171E18BF08
:104794000127641B467882F00102A4B20346C2706A
:1047A400848245F4806040EA4730A6BBD3E90326FF
:1047B4006F1E02EB811E55B3052F98BF721C31D9B1
:1047C40002EB811C721CACEB0204022C2AD9324687
:1047D4004FEA95094FEA890A06EB890852F8044B17
:1047E40042454CF8044BF9D15545A7EB0A070EEBAB
:1047F4000A040AD016F829600EF829602FB15678F9
:10480400012F667001D09278A2701E699C8A2E4492
:104814001E6140F400400CB940F4804001B1000432
:10482400BDE8F0870EF1FF3E2E4400E0013212F89D
:10483400014CB2420EF8014FF8D1E6E78368024614
:10484400186801B1000C5378C0F30900002B3CD068
:104854002DE9F041D2E90334461E03EB811E40B337
:10486400052E3BD989014D1C1D44651B022D35D9EC
:104874007346214600F47F774FEA9008FD1853F8F9
:1048840004CBAB4241F804CBF9D1B842A6EB0706FE
:1048940004EB07030EEB07010AD01EF8285004F8B6
:1048A40028502EB14C78012E5C7001D08978997013
:1048B4001469D38A04440344D382138B146183425E
:1048C40084BF00239382BDE8F081D38A0344D3825A
:1048D400138B834284BF002393827047013C0EEB09
:1048E40000011EF8013B714504F8013FF9D1DFE7EF
:1048F40010B50446836800211B68FFF79FFF6368B7
:104904001B685B0002D5238B834200D010BD204678
:10491400BDE810400121FFF791BF00BF084B1B6C9D
:1049240013F0020302D18278D20901D1002070472A
:10493400C07EA0F10200B0FA80F04009704700BFC9
:104944000000115008B5FFF7E9FF50B1054A064BC6
:10495400906A1B68A0F54870C01AC6288CBF002056
:10496400012008BD00000B409C1500200023C0E975
:1049740004338376704700BF10B5836809B11C689F
:10498400214082B1114352050DD51A6854050CD447
:10499400084A21F480641C60126C920703D40C232F
:1049A400033BFDD28368196010BD8178024800F092
:1049B40023FB00BF00001150983E001030B543683F
:1049C400002183B004461D68FFF7D8FE134B40F462
:1049D4008052196CA37889070ED55B060ED025F09A
:1049E400A04545F000550021204663681D6003B0D2
:1049F400BDE83040FFF7C0BFDB09F0D0A38A002B2D
:104A0400EDD0012120460192FFF7B8FE019A25F06E
:104A14000055024345F0A045E5E700BF00001150F2
:104A240038B5857E044695B1FFF762FFA38A0BB9BA
:104A3400284638BD2046FFF785FF20B101232377A0
:104A44000025284638BD2046FFF7B8FFF8E78178EF
:104A5400014800F0D1FA00BFB83E00102DE9F04340
:104A640043780446023B0D4685B0042B13D8DFE897
:104A740003F00348677042000021784B1A7822F053
:104A840001021A701A7822F002021A7059701A7808
:104A940061F382021A70724B1E687369EFF310821D
:104AA40072B6D3E8CF0F01210028FAD1C3E8401F22
:104AB4000028F6D1BFF35F8FB2612146304600F083
:104AC400A7FA00237269C2E88F3FB36983F31088A1
:104AD40048B94FF0E023D3F8F03DDB0708D500BE1A
:104AE40005B0BDE8F0832A466178207800F080FAAA
:104AF40005B0BDE8F0835B4A13780133DBB2137071
:104B0400C9E74FF00009584E4B463178DFF8608111
:104B1400564F0FE03A6812EB431305D0DB691BB123
:104B2400616820789847317809F101095FFA89F3BF
:104B34008B4217D89942EDD85B1A08EB4313EDE783
:104B4400464B1A78D707D3D51A7842F004021A7064
:104B5400A1E7424B1A78D607CAD51A7822F0040284
:104B64001A7098E73D4E3378580737D4F378DA074C
:104B7400BED5032300273A4A2178166862688DF867
:104B840004108DF805307369CDF80670CDF80A70FD
:104B9400ADF80E700292EFF3108272B6D3E8CF0F25
:104BA40001210028FAD1C3E8401F0028F6D1BFF341
:104BB4005F8F3046B26101A900F02AFA7369C3E835
:104BC4008F7FB36983F31088002882D02A469DF82A
:104BD40005109DF8040000F00BFA89E733784FF0D4
:104BE400000823F00403337005231D4A8DF80530B3
:104BF40017682278ADF80E808DF804207B69CDF813
:104C04000680CDF80A80EFF3108272B6D3E8CF0F96
:104C140001210028FAD1C3E8401F0028F6D1BFF3D0
:104C24005F8F3846BA6101A900F0F2F97B69C3E8E5
:104C34008F8FBB6983F3108838B94FF0E023D3F822
:104C4400F03DD90792D500BE90E72A469DF805109D
:104C54009DF8040000F0CCF988E700BF4C14002054
:104C6400A4140020F2190020F01900204813002099
:104C7400C43F001081F0004102E000BF83F0004314
:104C840030B54FEA41044FEA430594EA050F08BFE3
:104C940090EA020F1FBF54EA000C55EA020C7FEAA7
:104CA400645C7FEA655C00F0E2804FEA5454D4EB24
:104CB4005555B8BF6D420CDD2C4480EA020281EAEE
:104CC400030382EA000083EA010180EA020281EA26
:104CD4000303362D88BF30BD11F0004F4FEA013178
:104CE4004FF4801C4CEA113102D0404261EB410187
:104CF40013F0004F4FEA03334CEA133302D052420D
:104D040063EB430394EA050F00F0A780A4F10104C8
:104D1400D5F1200E0DDB02FA0EFC22FA05F2801802
:104D240041F1000103FA0EF2801843FA05F35941E8
:104D34000EE0A5F120050EF1200E012A03FA0EFC67
:104D440028BF4CF0020C43FA05F3C01851EBE37191
:104D540001F0004507D54FF0000EDCF1000C7EEBAE
:104D640000006EEB0101B1F5801F1BD3B1F5001FEC
:104D74000CD349085FEA30004FEA3C0C04F101040B
:104D84004FEA445212F5800F80F09A80BCF1004F34
:104D940008BF5FEA500C50F1000041EB045141EAB6
:104DA400050130BD5FEA4C0C404141EB0101013C7F
:104DB40028BFB1F5801FE9D291F0000F04BF01466E
:104DC4000020B1FA81F308BF2033A3F10B03B3F140
:104DD40020020CDA0C3208DD02F1140CC2F10C02D0
:104DE40001FA0CF021FA02F10CE002F11402D8BF2E
:104DF400C2F1200C01FA02F120FA0CFCDCBF41EAFA
:104E04000C019040E41AA2BF01EB0451294330BDC8
:104E14006FEA04041F3C1CDA0C340EDC04F11404A5
:104E2400C4F1200220FA04F001FA02F340EA03007C
:104E340021FA04F345EA030130BDC4F10C04C4F1C2
:104E4400200220FA02F001FA04F340EA03002946A2
:104E540030BD21FA04F0294630BD94F0000F83F4EC
:104E6400801306BF81F480110134013D4EE77FEACF
:104E7400645C18BF7FEA655C29D094EA050F08BF1B
:104E840090EA020F05D054EA000C04BF19461046FC
:104E940030BD91EA030F1EBF0021002030BD5FEA40
:104EA400545C05D14000494128BF41F0004130BD68
:104EB40014F580043CBF01F5801130BD01F00045BC
:104EC40045F0FE4141F470014FF0000030BD7FEA2F
:104ED400645C1ABF194610467FEA655C1CBF0B462A
:104EE400024650EA013406BF52EA033591EA030F41
:104EF40041F4002130BD00BF90F0000F04BF002139
:104F0400704730B54FF4806404F132044FF000056B
:104F14004FF0000150E700BF90F0000F04BF0021E4
:104F2400704730B54FF4806404F1320410F000454A
:104F340048BF40424FF000013EE700BF42004FEA45
:104F4400E2014FEA31014FEA02701FBF12F07F43C2
:104F540093F07F4F81F06051704732F07F4208BF79
:104F6400704793F07F4F04BF41F40021704730B580
:104F74004FF4607401F0004521F000411CE700BFCC
:104F840050EA010208BF704730B54FF000050AE04F
:104F940050EA010208BF704730B511F0004502D550
:104FA400404261EB41014FF4806404F132045FEA52
:104FB400915C3FF4D8AE4FF003025FEADC0C18BFFB
:104FC40003325FEADC0C18BF033202EBDC02C2F1ED
:104FD400200300FA03FC20FA02F001FA03FE40EA7F
:104FE4000E0021FA02F11444BDE600BF00000000E7
:104FF4005FF800F0152800105FF800F06506001057
:105004005FF800F0493B00105FF800F02513001032
:105014005FF800F0093A00105FF800F01D1200106C
:10502400E03E0010D43D0010DC3D00100000000004
:10503400100000000000000000000100000000005B
:10504400000000000000020000000000000000005A
:105054000000030000000000000000000000FF004A
:105064000000000001B5486801318E4600477046D3
:1050740009380149884701BD810A00100000000079
:10508400000000000000000000000000000000001C
:10509400C81100200000094000000000A8140020EE
:1050A40010000C00000000000000000000000000E0
:1050B4000000000000000000FF00000000000000ED
:0450C40000000000E8
:1050C800D3DEFFFFFE010000FF01000070B0FFFF0C
:0450D800793512AB69
:040000051000014D99
:00000001FF
